:04000000BCEF02F05F
:08000800046ED8CF05F0E0CF33
:1000100006F00001E9CF0CF0EACF07F0E1CF08F0DD
:10002000E2CF09F0D9CF0AF0DACF0BF0F3CF12F01C
:10003000F4CF13F0FACF14F0F5CF15F0F6CF16F099
:10004000F7CF17F000C00EF001C00FF002C010F0A3
:1000500003C011F09DA630EF00F09EB68AEF00F0CD
:100060000EC000F00FC001F010C002F011C003F08C
:100070000CC0E9FF07C0EAFF078E08C0E1FF09C016
:10008000E2FF0AC0D9FF0BC0DAFF12C0F3FF13C0B2
:10009000F4FF14C0FAFF15C0F5FF16C0F6FF17C035
:1000A000F7FF045006C0E0FF05C0D8FF10009DC058
:1000B000A0F09E6B9E5107081FE3A0C09FF09E51C9
:1000C000016E04E0D8909F33012EFCD79FA10AD087
:1000D000036A9E511F0FE96E000E0320EA6E010EA7
:1000E000EF6E08D0036A9E511F0FE96E000E0320C9
:1000F000EA6EEF6A9E2BDED7AFEF00F0C9509DC0CD
:10010000C9FFC6889E96C7B0FED7016AC5AC012A52
:10011000B4EF00F0C7BA03D0276AC7B4278E2750C0
:10012000272A1B6E1B507F081AE3C69CC7A0FED768
:10013000C950C6881A6E1B2C02D01AC01CF01B5066
:10014000020802E11AC01DF01B50030802E11AC0A8
:100150001EF01B50040803E11AC09DF0A8D71B50E5
:10016000800802E19D6BCAD79E9630EF00F0EA6AE4
:100170009C0EE96EEF5006E0520E006E002EFED788
:10018000EF2EFAD71200996B9A6B9A5105080FE37C
:100190009A51965D0AE19A519725E96E000E9821D1
:1001A000EA6EEF2C02D0010E996F9A2BEED799537D
:1001B000D8A4E1D1965311E197C0E9FF98C0EAFFB6
:1001C000EF520BE180BA09D097C0E9FF98C0EAFF6F
:1001D000010EEF6E996FCFD1CDD1962D15D0010EB6
:1001E0009725E96E000E9821EA6EEF520DE182BA72
:1001F0000BD0010E9725E96E000E9821EA6E010ED4
:10020000EF6E996FB8D1B6D19651020815E1020E82
:100210009725E96E000E9821EA6EEF520DE182B843
:100220000BD0020E9725E96E000E9821EA6E010EA2
:10023000EF6E996FA0D19ED19651030815E1030E80
:100240009725E96E000E9821EA6EEF520DE182B615
:100250000BD0030E9725E96E000E9821EA6E010E71
:10026000EF6E996F88D186D19651040815E1040E7E
:100270009725E96E000E9821EA6EEF520DE182BCDF
:100280000BD0040E9725E96E000E9821EA6E010E40
:10029000EF6E996F70D16ED19651050815E1050E7C
:1002A0009725E96E000E9821EA6EEF520DE182BEAD
:1002B0000BD0050E9725E96E000E9821EA6E010E0F
:1002C000EF6E996F58D156D1965333E097C0E9FF3E
:1002D00098C0EAFFEF522DE180BA2BD097C0E9FF1A
:1002E00098C0EAFF010EEF6E94948B84020E9B6F10
:1002F000FA0E9C6F3CDF9B2FFBD794948B94020EDD
:100300009B6FFA0E9C6F33DF9B2FFBD794948B84EB
:10031000020E9B6FFA0E9C6F2ADF9B2FFBD79494E3
:100320008B94020E9B6FFA0E9C6F21DF9B2FFBD7E5
:1003300021D1962D01D037D0010E9725E96E000E00
:100340009821EA6EEF522FE182BA2DD0010E972547
:10035000E96E000E9821EA6E010EEF6E94948B8484
:10036000020E9B6FFA0E9C6F02DF9B2FFBD79494BB
:100370008B94020E9B6FFA0E9C6FF9DE9B2FFBD7BE
:1003800094948B84020E9B6FFA0E9C6FF0DE9B2F71
:10039000FBD794948B94020E9B6FFA0E9C6FE7DE52
:1003A0009B2FFBD7E7D09651020837E0020E972526
:1003B000E96E000E9821EA6EEF522FE182B82DD03F
:1003C000020E9725E96E000E9821EA6E010EEF6E7F
:1003D00094948B84020E9B6FFA0E9C6FC8DE9B2F49
:1003E000FBD794948B94020E9B6FFA0E9C6FBFDE2A
:1003F0009B2FFBD794948B84020E9B6FFA0E9C6FFD
:10040000B6DE9B2FFBD794948B94020E9B6FFA0E53
:100410009C6FADDE9B2FFBD7ADD09651030837E024
:10042000030E9725E96E000E9821EA6EEF522FE138
:1004300082B62DD0030E9725E96E000E9821EA6E44
:10044000010EEF6E94948B84020E9B6FFA0E9C6FDC
:100450008EDE9B2FFBD794948B94020E9B6FFA0E2B
:100460009C6F85DE9B2FFBD794948B84020E9B6F31
:10047000FA0E9C6F7CDE9B2FFBD794948B94020E1C
:100480009B6FFA0E9C6F73DE9B2FFBD773D0965138
:10049000040837E0040E9725E96E000E9821EA6EF5
:1004A000EF522FE182BC2DD0040E9725E96E000E8D
:1004B0009821EA6E010EEF6E94948B84020E9B6F6E
:1004C000FA0E9C6F54DE9B2FFBD794948B94020EF4
:1004D0009B6FFA0E9C6F4BDE9B2FFBD794948B8403
:1004E000020E9B6FFA0E9C6F42DE9B2FFBD79494FB
:1004F0008B94020E9B6FFA0E9C6F39DE9B2FFBD7FD
:1005000039D09651050836E0050E9725E96E000EA4
:100510009821EA6EEF522EE182BE2CD0050E97256F
:10052000E96E000E9821EA6E010EEF6E94948B84B2
:10053000020E9B6FFA0E9C6F1ADE9B2FFBD79494D2
:100540008B94020E9B6FFA0E9C6F11DE9B2FFBD7D4
:1005500094948B84020E9B6FFA0E9C6F08DE9B2F87
:10056000FBD794948B94020E9B6FFA0E9C6FFFDD69
:100570009B2FFBD71CD61200F86AD09E078E300E38
:10058000D36E9B9C9B9E938C9388020EC86E360EF6
:10059000C66EC580C58E196A1C681D681E68030E6C
:1005A000276E000E7E6EC190C192C194C1967F6E7F
:1005B0006C6A6B6A6D6A1F6820682168226823680C
:1005C0002468256826689D86C00EF2128B6B8B51BD
:1005D00062080AE3036A8B51280FE96E000E0320BC
:1005E000EA6EEF6A8B2BF3D7020E8C6F8E6B280EA0
:1005F0008D6F8F6B906B916B926B936B946B1C50A8
:100600000208D8A4BBD08C510008D8B0B7D0262C93
:1006100018D08DC0E9FF8EC0EAFFEF5212E1966B51
:10062000986B8F0E976FAFDD010E8C5F8DC0E9FF69
:100630008EC0EAFF010EEF6E8C5303E1000E016ED7
:1006400063D1252C1CD0010E8D25E96E000E8E2164
:10065000EA6EEF5214E1050E966F986B8F0E976F4E
:1006600092DD010E8C5F8D25E96E000E8E21EA6E03
:10067000010EEF6E8C5303E1000E016E45D1242C68
:100680001FD0232C1DD0020E8D25E96E000E8E2169
:10069000EA6EEF5215E1040E966F986B8F0E976F0E
:1006A00072DD010E8C5F020E8D25E96E000E8E212B
:1006B000EA6E010EEF6E8C5303E1000E016E24D141
:1006C000242C01D002D0232C1FD0030E8D25E96EDF
:1006D000000E8E21EA6EEF5217E1030E966F986BB3
:1006E0008F0E976F50DD010E8C5F030E8D25E96E26
:1006F000000E8E21EA6E010EEF6E94948B848C5363
:1007000003E1000E016E00D1040E8D25E96E000E8E
:100710008E21EA6EEF5215E1010E966F986B8F0EE7
:10072000976F31DD010E8C5F040E8D25E96E000E92
:100730008E21EA6E010EEF6E8C5303E1000E016E06
:10074000E3D0050E8D25E96E000E8E21EA6EEF5284
:1007500015E1020E966F986B8F0E976F14DD010EE8
:100760008C5F050E8D25E96E000E8E21EA6E010E5E
:10077000EF6E8C5303E1000E016EC6D01C2CC0D06E
:100780008C510008D8B0BCD0262C1DD0060E8D256B
:10079000E96E000E8E21EA6EEF5215E1040E966F9F
:1007A000986B8F0E976FEFDC010E8C5F060E8D2518
:1007B000E96E000E8E21EA6E010EEF6E8C5303E19E
:1007C000000E016EA1D0252C1DD0070E8D25E96EDF
:1007D000000E8E21EA6EEF5215E1010E966F986BB6
:1007E0008F0E976FD0DC010E8C5F070E8D25E96EA2
:1007F000000E8E21EA6E010EEF6E8C5303E1000EA7
:10080000016E82D0242C1FD0232C1DD0080E8D25E4
:10081000E96E000E8E21EA6EEF5215E1020E966F20
:10082000986B8F0E976FAFDC010E8C5F080E8D25D5
:10083000E96E000E8E21EA6E010EEF6E8C5303E11D
:10084000000E016E61D0242C01D002D0232C1FD0C9
:10085000090E8D25E96E000E8E21EA6EEF5217E12A
:10086000050E966F986B8F0E976F8DDC010E8C5F67
:10087000090E8D25E96E000E8E21EA6E010EEF6ED7
:1008800094948B848C5303E1000E016E3DD00A0ECC
:100890008D25E96E000E8E21EA6EEF5214E1966B03
:1008A000986B8F0E976F6FDC010E8C5F0A0E8D2593
:1008B000E96E000E8E21EA6E010EEF6E8C5303E19D
:1008C000000E016E21D00B0E8D25E96E000E8E21DB
:1008D000EA6EEF5215E1030E966F986B8F0E976FCD
:1008E00052DC010E8C5F0B0E8D25E96E000E8E2101
:1008F000EA6E010EEF6E8C5303E1000E016E04D020
:0C0900008C5302E194948B8471D60300A8
:020000040030CA
:0E00000000E81E1E0088890003C003E00340D4
:00000001FF
;PIC18F14K22
;CRC=93AB  CREATED="05-Kov-19 21:04"
