:1000000028EF03F06BC009F06AC008F069C007F080
:1000100068C006F03DEF00F0F2CF66F0F29EA96AEC
:10002000A69CA69EA680A85066BFF28E676FF2506F
:10003000006EF29EA96A67C0A8FFA69CA69EA68431
:100040000F01550EA76EAA0EA76EA682A6B2FED706
:10005000A6940050F212F2CF66F0F29EA96AA69C16
:10006000A69EA680A850000166BFF28E676F6B6BDC
:100070006A6B696B67C068F0C5D7F2CF66F0F29E15
:10008000A96AA69CA69EA680A85066BFF28E010F04
:10009000676FF250006EF29EA96A67C0A8FFA69C27
:1000A000A69EA6840F01550EA76EAA0EA76EA68265
:1000B000A6B2FED7A6940050F212F2CF66F0F29EDE
:1000C000A96AA69CA69EA680A850000166BFF28ED3
:1000D000FF0813E1F250006EF29EA96AA86AA69C7E
:1000E000A69EA6840F01550EA76EAA0EA76EA68225
:1000F000A6B2FED7A6940050F2120001A7EF00F0BE
:10010000939A8A9A93988A9893968A9693908A90CB
:10011000949A8B9A666B665107080AE393948A84D3
:1001200093928A8293948A9493928A92662BF3D7BD
:10013000A8EF00F09292899292908990929489947B
:100140009296899692988998929A899A65D7D8D7E3
:100150008DEF03F0736B746B010E756FDA6AD96AF9
:10016000786B6B0E776FEA6A6F0EE96E78C0E2FF0C
:1001700077C0E1FF75C076F0D890E550EE02F350FD
:100180007323F4507423762FF7D773C0DEFF74C047
:1001900073F0746BD8B0742B772BD8B4782B752B85
:1001A00075510508E0E108EF01F0016A026A006A92
:1001B000036A715102E1705118E0100E726FD8900D
:1001C0006E376F37003603367151035C02E17051B0
:1001D000005C07E37051005ED8A003067151035E16
:1001E000D88001360236722FEAD726EF01F009C017
:1001F0006EF008C06DF007C06CF006C06BF0410EE9
:10020000726FC60E716F4E0E706F6D0E6F6FA2D74C
:10021000390E0024066E300E0120076E000E0220FB
:10022000086E000E0320096E08C000F009C001F03E
:10023000026A036A09C06DF008C06CF009C06FF073
:1002400008C06EF07F0E716F7069AFD700C001F00B
:1002500003C002F03AEF01F0686B6851030813E342
:1002600068516625016E000E6721036E01C069F0BA
:100270006A6FBDD70150010B6AC0EAFF69C0E9FF90
:10028000EF6E682BEAD766C0E9FF67C0EAFFEF2C84
:1002900002D092948984010E6625E96E000E6721D2
:1002A000EA6EEF2C02D092968986020E6625E96EE0
:1002B000000E6721EA6EEF2C02D092988988030E17
:1002C0006625E96E000E6721EA6EEF2C02D0929A45
:1002D000898A040E6625E96E000E6721EA6EEF6AD0
:1002E000050E6625E96E000E6721EA6EEF6A060EBE
:1002F0006625E96E000E6721EA6EEF6A070E662535
:10030000E96E000E6721EA6EEF6A98EF03F0EA6A81
:10031000690EE96EEF5006E0520E006E002EFED719
:10032000EF2EFAD71200C69E9E966DC0C9FF020E30
:10033000C6BE05D09EA6FED7000EC5BC010E016E3E
:1003400012006B6B6C6B6C5107080CE3D8906B3729
:100350006C516625E96E000E6721EA6EEF506B273F
:100360006C2BF1D7C580C5B0FED7020E6D6FDBDFF9
:1003700068C06DF0D8DF69C06DF0D5DF6AC06DF080
:10038000D2DF6BC06DF0CFDFC582C5B2FED7140ED1
:100390006D6FC9DF68C06DF0C6DF69C06DF0C3DF87
:1003A0006AC06DF0C0DF6BC06DF0BDDFC584C5B441
:1003B000FED712007551016A745D03E274C000F04B
:1003C0000CD0006A080E766F743700367551005CE9
:1003D000D8B0006E0136762FF7D71200716B6E53CE
:1003E0000AE1036A70510A0FE96E000E0320EA6EFB
:1003F000EFCF71F073D06E2D0AD0036A7051120FD7
:10040000E96E000E0320EA6EEFCF71F067D06E51F7
:1004100002080AE1036A70511A0FE96E000E032008
:10042000EA6EEFCF71F05AD06E5103080AE1036A09
:100430007051220FE96E000E0320EA6EEFCF71F0CB
:100440004DD06E5104080AE1036A70512A0FE96E1B
:10045000000E0320EA6EEFCF71F040D06E51050818
:100460000AE1036A7051320FE96E000E0320EA6E52
:10047000EFCF71F033D06E5106080AE1036A705174
:100480003A0FE96E000E0320EA6EEFCF71F026D02E
:100490006E5107080AE1036A7051420FE96E000EBF
:1004A0000320EA6EEFCF71F019D06E5108080AE10F
:1004B000036A70514A0FE96E000E0320EA6EEFCF17
:1004C00071F00CD06E51090809E1036A7051520FA6
:1004D000E96E000E0320EA6EEFCF71F06F510D0848
:1004E00005E1712D03D0939A8A8A1FD06F510C08B1
:1004F00005E1712D03D093988A8817D06F510B08AE
:1005000005E1712D03D093968A860FD06F510808AC
:1005100005E1712D03D093908A8007D06F511508A3
:1005200004E1712D02D0949A8B8A1200665303E184
:1005300067511E0810E292908980530E006E002EC3
:10054000FED792908990090E686F6F0E696FDFDE9B
:10055000682FFBD76CD067511E0828E367510A0843
:1005600025E292908980530E006E002EFED7929065
:100570008990020E686FF90E696FC9DE682FFBD78C
:10058000010E696FC4DE92908980530E006E002EBA
:10059000FED792908990020E686FF90E696FB7DEF0
:1005A000682FFBD7010E696FB2DE41D067510A0890
:1005B00031E3675100082EE292908980530E006E5D
:1005C000002EFED792908990020E686FA60E696F7A
:1005D0009EDE682FFBD792908980530E006E002E0E
:1005E000FED792908990020E686FA60E696F8FDE1B
:1005F000682FFBD792908980530E006E002EFED795
:1006000092908990020E686FA60E696F80DE682F47
:10061000FBD70DD067530BE192908980040E686F71
:10062000FA0E696F74DE682FFBD79290899010EFF5
:1006300004F0C69CC586C5B6FED700B0C59A00A01A
:10064000C58AC588C5B8FED7C9CF01F03EEF04F012
:10065000F86AD09E300ED36E9B9C9B9E94869488A5
:10066000CB90CB92CB96020EC86E280EC66EC78E6C
:10067000C79C0F01386B396B3A6B776A786A796A75
:100680002BD0020004000002000A000006C0010591
:10069000C0000F8001010000010001010001010004
:1006A00001000004C00111800001010000010100EF
:1006B00000010100010100010005C00102800001EC
:1006C00005C00004800101010007C001088000018D
:1006D0000100010101010000000EF86E060EF76E28
:1006E000820EF66E0900F550006E000A13E0090054
:1006F000F550016EE8BE05D00F0BEA6E0900F5CF8C
:10070000E9FF01BC090001AC0900F5CFEEFF004E86
:10071000E9D7F9D7F86A00010DD5010E5A6E040E1B
:100720005B6E5C6A020E5D6E676B5E0E666F94D5E3
:10073000020E666FFA0E696FEADD662FFBD7676BF4
:100740005E0E666F5AC068F05BC069F05CC06AF00C
:10075000F8DD666B676B686B696B5BC06EF05CC0E5
:100760006FF06EC074F00A0E756F24DE01C066F083
:100770006EC074F00A0E756F1DDE00C067F06FC0AA
:1007800074F00A0E756F16DE01C068F06FC074F069
:100790000A0E756F0FDE00C069F06A6B6A510708B8
:1007A00033E366C06EF00D0E6F6F6AC070F016DE38
:1007B00067C06EF00C0E6F6F6AC070F00FDE68C01D
:1007C0006EF00B0E6F6F6AC070F008DE69C06EF0DD
:1007D000080E6F6F6AC070F001DE5AC06EF0150E21
:1007E0006F6F6AC070F0FADD93948A8493948A9450
:1007F000939A8A9A93988A9893968A9693908A90D5
:10080000949A8B9A6A2BCAD793928A8293928A92ED
:100810005D5201E142D05BC066F05CC067F086D6F5
:100820005AC066F05B5202E15C5202E0665303E19B
:10083000010E016E0DD05C5207E1010E5B5E3B0EB6
:100840005C6E000E016E04D0010E5C5E000E016E47
:10085000012C01D022D0676B5E0E666F5AC068F023
:100860005BC069F05CC06AF06CDD666BC580C5B0CA
:10087000FED7030E6D6F57DD006ADBD601C066F050
:10088000C584C5B4FED76651FF0802E1010E5A5E69
:0C089000662D02D0010E5D5E5CD70300F7
:020000040030CA
:0E00000000E81E3C00BF810003C003E0034087
:00000001FF
;PIC18F24K22
;CRC=46A7  CREATED="07-Kov-19 22:12"
