:04000000B7EF00F066
:08000800046ED8CF05F0E0CF33
:1000100006F00001E9CF0CF0EACF07F0E1CF08F0DD
:10002000E2CF09F0D9CF0AF0DACF0BF0F3CF12F01C
:10003000F4CF13F0FACF14F0F5CF15F0F6CF16F099
:10004000F7CF17F000C00EF001C00FF002C010F0A3
:1000500003C011F09DA630EF00F09EB68AEF00F0CD
:100060000EC000F00FC001F010C002F011C003F08C
:100070000CC0E9FF07C0EAFF078E08C0E1FF09C016
:10008000E2FF0AC0D9FF0BC0DAFF12C0F3FF13C0B2
:10009000F4FF14C0FAFF15C0F5FF16C0F6FF17C035
:1000A000F7FF045006C0E0FF05C0D8FF100028C0CD
:1000B0002BF0296A295007081FE32BC02AF029508A
:1000C000016E04E0D8902A32012EFCD72AA00AD073
:1000D000036A29501F0FE96E000E0320EA6E010E1D
:1000E000EF6E08D0036A29501F0FE96E000E03203F
:1000F000EA6EEF6A292ADED7AFEF00F0C95028C0B8
:10010000C9FFC6889E96C7B0FED7016AC5AC012A52
:10011000B4EF00F0C7BA03D0276AC7B4278E2750C0
:10012000272A1B6E1B507F081AE3C69CC7A0FED768
:10013000C950C6881A6E1B2C02D01AC01CF01B5066
:10014000020802E11AC01DF01B50030802E11AC0A8
:100150001EF01B50040803E11AC028F0A8D71B505A
:10016000800802E1286ACAD79E9630EF00F0F86A4C
:10017000D09E078E300ED36E9B9C9B9E938C938853
:10018000140EC86E360EC66EC580C58E196A1C6800
:100190001D681E68030E276E000E7E6EC190C19210
:1001A000C194C1967F6E6C6A6B6A6D6A1F68206825
:1001B0002168226823682468256826689D86C00E09
:1001C000F2121E501E0803E01E503B0803E19298F5
:0C01D000898802D092988998F4D7030027
:020000040030CA
:0E00000000E81E1E0088890003C003E00340D4
:00000001FF
;PIC18F14K22
;CRC=EA15  CREATED="21-Sau-19 20:39"
