:0400000030EF02F0EB
:08000800046ED8CF05F0E0CF33
:1000100006F00001E9CF0CF0EACF07F0E1CF08F0DD
:10002000E2CF09F0D9CF0AF0DACF0BF0F3CF12F01C
:10003000F4CF13F0FACF14F0F5CF15F0F6CF16F099
:10004000F7CF17F000C00EF001C00FF002C010F0A3
:1000500003C011F09DA630EF00F09EB657EF00F000
:100060000EC000F00FC001F010C002F011C003F08C
:100070000CC0E9FF07C0EAFF078E08C0E1FF09C016
:10008000E2FF0AC0D9FF0BC0DAFF12C0F3FF13C0B2
:10009000F4FF14C0FAFF15C0F5FF16C0F6FF17C035
:1000A000F7FF045006C0E0FF05C0D8FF10009E9681
:1000B00030EF00F09D86C00EF212929289929296D5
:1000C0008996929A899A94948B9494908B90949216
:1000D0008B9292988998929C899C53EF02F06A6B5C
:1000E0006B6B010E6C6FDA6AD96A6F6B620E6E6FA2
:1000F000EA6A660EE96E6FC0E2FF6EC0E1FF6CC097
:100100006DF0D890E550EE02F3506A23F4506B2363
:100110006D2FF7D76AC0DEFF6BC06AF06B6BD8B08B
:100120006B2B6E2BD8B46F2B6C2B6C510508E0E158
:10013000CDEF00F0016A026A006A036A685102E1C9
:10014000675118E0100E696FD89065376637003632
:1001500003366851035C02E16751005C07E36751B5
:10016000005ED8A003066851035ED88001360236CF
:10017000692FEAD7EBEF00F01EC065F01DC064F0F8
:100180001CC063F01BC062F0410E696FC60E686F41
:100190004E0E676F6D0E666FA2D7390E00241B6E70
:1001A000300E01201C6E000E02201D6E000E03207A
:1001B0001E6E1DC000F01EC001F0026A036A1EC060
:1001C00064F01DC063F01EC066F01DC065F07F0EB8
:1001D000686F6769AFD700C001F003C002F062EF3B
:1001E00002F09292898292968986929A898A949450
:1001F0008B841200EA6A690EE96EEF5006E0520E37
:10020000006E002EFED7EF2EFAD71200676B6751F3
:10021000665DD8A06FD067516425E96E000E652138
:10022000EA6EEF5213E194908B80020E686FFA0E23
:10023000696FE0DF682FFBD794908B90020E686F98
:10024000FA0E696FD7DF682FFBD752D0675164254C
:10025000E96E000E6521EA6EEF2C13D0929C898C1A
:10026000020E686FFA0E696FC5DF682FFBD7929C8C
:10027000899C020E686FFA0E696FBCDF682FFBD78E
:1002800037D067516425E96E000E6521EA6EEF50A4
:10029000020813E192988988020E686FFA0E696F5E
:1002A000A9DF682FFBD792988998020E686FFA0E23
:1002B000696FA0DF682FFBD71BD067516425E96EFB
:1002C000000E6521EA6EEF50030812E194928B82D2
:1002D000020E686FFA0E696F8DDF682FFBD794925C
:1002E0008B92020E686FFA0E696F84DF682FFBD75E
:1002F000672B8DD7B1EF01F09292899292968996F1
:10030000929A899A94948B940AEF02F0646B6451E8
:10031000030818E394908B80929C898C94928B8232
:1003200092988988C80E696F65DF94908B90929C33
:10033000899C94928B9292988998C80E696F5ADF23
:10034000642BE5D715EF02F0626B636B63513008E5
:10035000D8A06BD061C065F060C064F063C066F087
:1003600055D73FDF61C065F060C064F063C066F0E0
:10037000676B6751665D53E334DF82A00DD0675130
:100380006425E96E000E6521EA6EEF5204E0010E6D
:10039000626F33D001D031D080AC0ED0675164256C
:1003A000E96E000E6521EA6EEF2C01D004D0010E3B
:1003B000626F23D001D021D080A80ED06751642570
:1003C000E96E000E6521EA6EEF50020804E0010EAE
:1003D000626F13D001D011D082A20ED06751642574
:1003E000E96E000E6521EA6EEF50030804E0010E8D
:1003F000626F03D001D001D0C0D7622D01D00FD0E1
:1004000082B006D080BC04D080B802D082A201D0D5
:10041000F7D772D7C80E696FEDDE672BAAD7622DAA
:1004200002D074D702D0632B91D770EF02F0949072
:100430008B80929C898C94928B8292988988080EEA
:10044000606FFA0E696FD6DE602FFBD794908B90A9
:10045000929C899C94928B929298899871EF02F069
:10046000F86AD09E078E400ED36ED350938293804D
:10047000140EC86E360EC66EC580C58E1F6A226801
:1004800023682468C150C00B0F09C16E070EB46EFB
:10049000196A1A6A256826682768286829682A68F8
:1004A0002B682C6807D65F6A5F50310814E3036A33
:1004B0005F502D0F016E000E032201C060F003C0DB
:1004C00061F05AD60150030B61C0EAFF60C0E9FF3A
:1004D000EF6E5F2AE9D785DE616B2D0E606F34D732
:0604E000A6D7FAD70300C5
:020000040030CA
:0E00000027C83E1E008781000FC00FE00F4092
:00000001FF
;PIC18F2455
;CRC=B553  CREATED="26-Sau-19 22:44"
